{
    "abi": [
        {
            "type": "constructor",
            "inputs": [],
            "stateMutability": "nonpayable"
        },
        {
            "type": "function",
            "name": "BASIS_POINTS",
            "inputs": [],
            "outputs": [
                {
                    "name": "",
                    "type": "uint256",
                    "internalType": "uint256"
                }
            ],
            "stateMutability": "view"
        },
        {
            "type": "function",
            "name": "PLATFORM_FEE",
            "inputs": [],
            "outputs": [
                {
                    "name": "",
                    "type": "uint256",
                    "internalType": "uint256"
                }
            ],
            "stateMutability": "view"
        },
        {
            "type": "function",
            "name": "allPropertyIds",
            "inputs": [
                {
                    "name": "",
                    "type": "uint256",
                    "internalType": "uint256"
                }
            ],
            "outputs": [
                {
                    "name": "",
                    "type": "uint256",
                    "internalType": "uint256"
                }
            ],
            "stateMutability": "view"
        },
        {
            "type": "function",
            "name": "collectPlatformFees",
            "inputs": [],
            "outputs": [],
            "stateMutability": "nonpayable"
        },
        {
            "type": "function",
            "name": "getAllProperties",
            "inputs": [],
            "outputs": [
                {
                    "name": "",
                    "type": "tuple[]",
                    "internalType": "struct PropertyRental.Property[]",
                    "components": [
                        {
                            "name": "id",
                            "type": "uint256",
                            "internalType": "uint256"
                        },
                        {
                            "name": "owner",
                            "type": "address",
                            "internalType": "address"
                        },
                        {
                            "name": "description",
                            "type": "string",
                            "internalType": "string"
                        },
                        {
                            "name": "imageUrl",
                            "type": "string",
                            "internalType": "string"
                        },
                        {
                            "name": "propertyType",
                            "type": "string",
                            "internalType": "string"
                        },
                        {
                            "name": "dailyRate",
                            "type": "uint256",
                            "internalType": "uint256"
                        },
                        {
                            "name": "availableDays",
                            "type": "uint256",
                            "internalType": "uint256"
                        },
                        {
                            "name": "isAvailable",
                            "type": "bool",
                            "internalType": "bool"
                        },
                        {
                            "name": "createdAt",
                            "type": "uint256",
                            "internalType": "uint256"
                        }
                    ]
                }
            ],
            "stateMutability": "view"
        },
        {
            "type": "function",
            "name": "getOwnerPropertyCount",
            "inputs": [
                {
                    "name": "_owner",
                    "type": "address",
                    "internalType": "address"
                }
            ],
            "outputs": [
                {
                    "name": "",
                    "type": "uint256",
                    "internalType": "uint256"
                }
            ],
            "stateMutability": "view"
        },
        {
            "type": "function",
            "name": "getPlatformStats",
            "inputs": [],
            "outputs": [
                {
                    "name": "totalProperties",
                    "type": "uint256",
                    "internalType": "uint256"
                },
                {
                    "name": "totalRentals",
                    "type": "uint256",
                    "internalType": "uint256"
                },
                {
                    "name": "platformBalance",
                    "type": "uint256",
                    "internalType": "uint256"
                }
            ],
            "stateMutability": "view"
        },
        {
            "type": "function",
            "name": "getPropertiesByOwner",
            "inputs": [
                {
                    "name": "_owner",
                    "type": "address",
                    "internalType": "address"
                }
            ],
            "outputs": [
                {
                    "name": "",
                    "type": "tuple[]",
                    "internalType": "struct PropertyRental.Property[]",
                    "components": [
                        {
                            "name": "id",
                            "type": "uint256",
                            "internalType": "uint256"
                        },
                        {
                            "name": "owner",
                            "type": "address",
                            "internalType": "address"
                        },
                        {
                            "name": "description",
                            "type": "string",
                            "internalType": "string"
                        },
                        {
                            "name": "imageUrl",
                            "type": "string",
                            "internalType": "string"
                        },
                        {
                            "name": "propertyType",
                            "type": "string",
                            "internalType": "string"
                        },
                        {
                            "name": "dailyRate",
                            "type": "uint256",
                            "internalType": "uint256"
                        },
                        {
                            "name": "availableDays",
                            "type": "uint256",
                            "internalType": "uint256"
                        },
                        {
                            "name": "isAvailable",
                            "type": "bool",
                            "internalType": "bool"
                        },
                        {
                            "name": "createdAt",
                            "type": "uint256",
                            "internalType": "uint256"
                        }
                    ]
                }
            ],
            "stateMutability": "view"
        },
        {
            "type": "function",
            "name": "getProperty",
            "inputs": [
                {
                    "name": "_propertyId",
                    "type": "uint256",
                    "internalType": "uint256"
                }
            ],
            "outputs": [
                {
                    "name": "",
                    "type": "tuple",
                    "internalType": "struct PropertyRental.Property",
                    "components": [
                        {
                            "name": "id",
                            "type": "uint256",
                            "internalType": "uint256"
                        },
                        {
                            "name": "owner",
                            "type": "address",
                            "internalType": "address"
                        },
                        {
                            "name": "description",
                            "type": "string",
                            "internalType": "string"
                        },
                        {
                            "name": "imageUrl",
                            "type": "string",
                            "internalType": "string"
                        },
                        {
                            "name": "propertyType",
                            "type": "string",
                            "internalType": "string"
                        },
                        {
                            "name": "dailyRate",
                            "type": "uint256",
                            "internalType": "uint256"
                        },
                        {
                            "name": "availableDays",
                            "type": "uint256",
                            "internalType": "uint256"
                        },
                        {
                            "name": "isAvailable",
                            "type": "bool",
                            "internalType": "bool"
                        },
                        {
                            "name": "createdAt",
                            "type": "uint256",
                            "internalType": "uint256"
                        }
                    ]
                }
            ],
            "stateMutability": "view"
        },
        {
            "type": "function",
            "name": "owner",
            "inputs": [],
            "outputs": [
                {
                    "name": "",
                    "type": "address",
                    "internalType": "address"
                }
            ],
            "stateMutability": "view"
        },
        {
            "type": "function",
            "name": "ownerProperties",
            "inputs": [
                {
                    "name": "",
                    "type": "address",
                    "internalType": "address"
                },
                {
                    "name": "",
                    "type": "uint256",
                    "internalType": "uint256"
                }
            ],
            "outputs": [
                {
                    "name": "",
                    "type": "uint256",
                    "internalType": "uint256"
                }
            ],
            "stateMutability": "view"
        },
        {
            "type": "function",
            "name": "platformEarnings",
            "inputs": [
                {
                    "name": "",
                    "type": "address",
                    "internalType": "address"
                }
            ],
            "outputs": [
                {
                    "name": "",
                    "type": "uint256",
                    "internalType": "uint256"
                }
            ],
            "stateMutability": "view"
        },
        {
            "type": "function",
            "name": "properties",
            "inputs": [
                {
                    "name": "",
                    "type": "uint256",
                    "internalType": "uint256"
                }
            ],
            "outputs": [
                {
                    "name": "id",
                    "type": "uint256",
                    "internalType": "uint256"
                },
                {
                    "name": "owner",
                    "type": "address",
                    "internalType": "address"
                },
                {
                    "name": "description",
                    "type": "string",
                    "internalType": "string"
                },
                {
                    "name": "imageUrl",
                    "type": "string",
                    "internalType": "string"
                },
                {
                    "name": "propertyType",
                    "type": "string",
                    "internalType": "string"
                },
                {
                    "name": "dailyRate",
                    "type": "uint256",
                    "internalType": "uint256"
                },
                {
                    "name": "availableDays",
                    "type": "uint256",
                    "internalType": "uint256"
                },
                {
                    "name": "isAvailable",
                    "type": "bool",
                    "internalType": "bool"
                },
                {
                    "name": "createdAt",
                    "type": "uint256",
                    "internalType": "uint256"
                }
            ],
            "stateMutability": "view"
        },
        {
            "type": "function",
            "name": "registerProperty",
            "inputs": [
                {
                    "name": "_description",
                    "type": "string",
                    "internalType": "string"
                },
                {
                    "name": "_imageUrl",
                    "type": "string",
                    "internalType": "string"
                },
                {
                    "name": "_propertyType",
                    "type": "string",
                    "internalType": "string"
                },
                {
                    "name": "_dailyRate",
                    "type": "uint256",
                    "internalType": "uint256"
                },
                {
                    "name": "_availableDays",
                    "type": "uint256",
                    "internalType": "uint256"
                }
            ],
            "outputs": [
                {
                    "name": "",
                    "type": "uint256",
                    "internalType": "uint256"
                }
            ],
            "stateMutability": "nonpayable"
        },
        {
            "type": "function",
            "name": "rentProperty",
            "inputs": [
                {
                    "name": "_propertyId",
                    "type": "uint256",
                    "internalType": "uint256"
                },
                {
                    "name": "_days",
                    "type": "uint256",
                    "internalType": "uint256"
                }
            ],
            "outputs": [],
            "stateMutability": "payable"
        },
        {
            "type": "function",
            "name": "rentals",
            "inputs": [
                {
                    "name": "",
                    "type": "uint256",
                    "internalType": "uint256"
                }
            ],
            "outputs": [
                {
                    "name": "propertyId",
                    "type": "uint256",
                    "internalType": "uint256"
                },
                {
                    "name": "renter",
                    "type": "address",
                    "internalType": "address"
                },
                {
                    "name": "startDate",
                    "type": "uint256",
                    "internalType": "uint256"
                },
                {
                    "name": "rentalDays",
                    "type": "uint256",
                    "internalType": "uint256"
                },
                {
                    "name": "totalAmount",
                    "type": "uint256",
                    "internalType": "uint256"
                },
                {
                    "name": "isActive",
                    "type": "bool",
                    "internalType": "bool"
                }
            ],
            "stateMutability": "view"
        },
        {
            "type": "event",
            "name": "PlatformFeeCollected",
            "inputs": [
                {
                    "name": "amount",
                    "type": "uint256",
                    "indexed": false,
                    "internalType": "uint256"
                },
                {
                    "name": "to",
                    "type": "address",
                    "indexed": false,
                    "internalType": "address"
                }
            ],
            "anonymous": false
        },
        {
            "type": "event",
            "name": "PropertyRegistered",
            "inputs": [
                {
                    "name": "propertyId",
                    "type": "uint256",
                    "indexed": true,
                    "internalType": "uint256"
                },
                {
                    "name": "owner",
                    "type": "address",
                    "indexed": true,
                    "internalType": "address"
                },
                {
                    "name": "propertyType",
                    "type": "string",
                    "indexed": false,
                    "internalType": "string"
                },
                {
                    "name": "dailyRate",
                    "type": "uint256",
                    "indexed": false,
                    "internalType": "uint256"
                }
            ],
            "anonymous": false
        },
        {
            "type": "event",
            "name": "PropertyRented",
            "inputs": [
                {
                    "name": "propertyId",
                    "type": "uint256",
                    "indexed": true,
                    "internalType": "uint256"
                },
                {
                    "name": "rentalId",
                    "type": "uint256",
                    "indexed": true,
                    "internalType": "uint256"
                },
                {
                    "name": "renter",
                    "type": "address",
                    "indexed": true,
                    "internalType": "address"
                },
                {
                    "name": "rentalDays",
                    "type": "uint256",
                    "indexed": false,
                    "internalType": "uint256"
                },
                {
                    "name": "totalAmount",
                    "type": "uint256",
                    "indexed": false,
                    "internalType": "uint256"
                }
            ],
            "anonymous": false
        }
    ],
    "bytecode": {
        "object": "0x6080604052348015600e575f5ffd5b50335f5f6101000a81548173ffffffffffffffffffffffffffffffffffffffff021916908373ffffffffffffffffffffffffffffffffffffffff1602179055505f6001819055505f600281905550612f26806100695f395ff3fe6080604052600436106100f2575f3560e01c80638da5cb5b11610089578063c33a57d111610058578063c33a57d11461033f578063d79fb4ff1461037b578063e1f1c4a7146103b7578063f7b10808146103e1576100f2565b80638da5cb5b1461025c5780638f48bd5b146102865780639fcb2748146102c2578063af94a1d1146102fe576100f2565b80633d51402c116100c55780633d51402c146101c45780633ec4ebb7146101ee5780634287f2451461020a5780634efcaca514610220576100f2565b8063136d8883146100f65780632a67b9741461012257806332665ffb1461015e57806334fbc9a11461019a575b5f5ffd5b348015610101575f5ffd5b5061010a610425565b60405161011993929190611c3a565b60405180910390f35b34801561012d575f5ffd5b5061014860048036038101906101439190611de6565b610497565b6040516101559190611eb1565b60405180910390f35b348015610169575f5ffd5b50610184600480360381019061017f9190611eca565b6107df565b604051610191919061208d565b60405180910390f35b3480156101a5575f5ffd5b506101ae610aa3565b6040516101bb9190611eb1565b60405180910390f35b3480156101cf575f5ffd5b506101d8610aa8565b6040516101e59190612238565b60405180910390f35b61020860048036038101906102039190612258565b610dca565b005b348015610215575f5ffd5b5061021e61128c565b005b34801561022b575f5ffd5b5061024660048036038101906102419190611eca565b6114df565b6040516102539190611eb1565b60405180910390f35b348015610267575f5ffd5b506102706114ff565b60405161027d91906122a5565b60405180910390f35b348015610291575f5ffd5b506102ac60048036038101906102a791906122e8565b611523565b6040516102b99190611eb1565b60405180910390f35b3480156102cd575f5ffd5b506102e860048036038101906102e39190612326565b61154e565b6040516102f59190612238565b60405180910390f35b348015610309575f5ffd5b50610324600480360381019061031f9190611eca565b6118f6565b60405161033696959493929190612360565b60405180910390f35b34801561034a575f5ffd5b5061036560048036038101906103609190612326565b611959565b6040516103729190611eb1565b60405180910390f35b348015610386575f5ffd5b506103a1600480360381019061039c9190612326565b61196e565b6040516103ae9190611eb1565b60405180910390f35b3480156103c2575f5ffd5b506103cb6119b7565b6040516103d89190611eb1565b60405180910390f35b3480156103ec575f5ffd5b5061040760048036038101906104029190611eca565b6119bd565b60405161041c99989796959493929190612407565b60405180910390f35b5f5f5f60015460025460065f5f5f9054906101000a900473ffffffffffffffffffffffffffffffffffffffff1673ffffffffffffffffffffffffffffffffffffffff1673ffffffffffffffffffffffffffffffffffffffff1681526020019081526020015f2054925092509250909192565b5f5f8651116104db576040517f08c379a00000000000000000000000000000000000000000000000000000000081526004016104d2906124f1565b60405180910390fd5b5f84511161051e576040517f08c379a00000000000000000000000000000000000000000000000000000000081526004016105159061257f565b60405180910390fd5b5f8311610560576040517f08c379a00000000000000000000000000000000000000000000000000000000081526004016105579061260d565b60405180910390fd5b5f82116105a2576040517f08c379a00000000000000000000000000000000000000000000000000000000081526004016105999061269b565b60405180910390fd5b60015f8154809291906105b4906126e6565b91905055505f60015490506040518061012001604052808281526020013373ffffffffffffffffffffffffffffffffffffffff1681526020018881526020018781526020018681526020018581526020018481526020016001151581526020014281525060035f8381526020019081526020015f205f820151815f01556020820151816001015f6101000a81548173ffffffffffffffffffffffffffffffffffffffff021916908373ffffffffffffffffffffffffffffffffffffffff160217905550604082015181600201908161068c919061292a565b5060608201518160030190816106a2919061292a565b5060808201518160040190816106b8919061292a565b5060a0820151816005015560c0820151816006015560e0820151816007015f6101000a81548160ff021916908315150217905550610100820151816008015590505060045f3373ffffffffffffffffffffffffffffffffffffffff1673ffffffffffffffffffffffffffffffffffffffff1681526020019081526020015f2081908060018154018082558091505060019003905f5260205f20015f9091909190915055600781908060018154018082558091505060019003905f5260205f20015f90919091909150553373ffffffffffffffffffffffffffffffffffffffff16817f4a94c8d5fab40a5edfd34ed099a279029ee376bf6a571684e0cffd8e00216dbc87876040516107ca9291906129f9565b60405180910390a38091505095945050505050565b6107e7611bc4565b815f811180156107f957506001548111155b610838576040517f08c379a000000000000000000000000000000000000000000000000000000000815260040161082f90612a71565b60405180910390fd5b60035f8481526020019081526020015f20604051806101200160405290815f8201548152602001600182015f9054906101000a900473ffffffffffffffffffffffffffffffffffffffff1673ffffffffffffffffffffffffffffffffffffffff1673ffffffffffffffffffffffffffffffffffffffff1681526020016002820180546108c39061275a565b80601f01602080910402602001604051908101604052809291908181526020018280546108ef9061275a565b801561093a5780601f106109115761010080835404028352916020019161093a565b820191905f5260205f20905b81548152906001019060200180831161091d57829003601f168201915b505050505081526020016003820180546109539061275a565b80601f016020809104026020016040519081016040528092919081815260200182805461097f9061275a565b80156109ca5780601f106109a1576101008083540402835291602001916109ca565b820191905f5260205f20905b8154815290600101906020018083116109ad57829003601f168201915b505050505081526020016004820180546109e39061275a565b80601f0160208091040260200160405190810160405280929190818152602001828054610a0f9061275a565b8015610a5a5780601f10610a3157610100808354040283529160200191610a5a565b820191905f5260205f20905b815481529060010190602001808311610a3d57829003601f168201915b505050505081526020016005820154815260200160068201548152602001600782015f9054906101000a900460ff16151515158152602001600882015481525050915050919050565b60c881565b60605f60078054905067ffffffffffffffff811115610aca57610ac9611c98565b5b604051908082528060200260200182016040528015610b0357816020015b610af0611bc4565b815260200190600190039081610ae85790505b5090505f5f90505b600780549050811015610dc25760035f60078381548110610b2f57610b2e612a8f565b5b905f5260205f20015481526020019081526020015f20604051806101200160405290815f8201548152602001600182015f9054906101000a900473ffffffffffffffffffffffffffffffffffffffff1673ffffffffffffffffffffffffffffffffffffffff1673ffffffffffffffffffffffffffffffffffffffff168152602001600282018054610bbf9061275a565b80601f0160208091040260200160405190810160405280929190818152602001828054610beb9061275a565b8015610c365780601f10610c0d57610100808354040283529160200191610c36565b820191905f5260205f20905b815481529060010190602001808311610c1957829003601f168201915b50505050508152602001600382018054610c4f9061275a565b80601f0160208091040260200160405190810160405280929190818152602001828054610c7b9061275a565b8015610cc65780601f10610c9d57610100808354040283529160200191610cc6565b820191905f5260205f20905b815481529060010190602001808311610ca957829003601f168201915b50505050508152602001600482018054610cdf9061275a565b80601f0160208091040260200160405190810160405280929190818152602001828054610d0b9061275a565b8015610d565780601f10610d2d57610100808354040283529160200191610d56565b820191905f5260205f20905b815481529060010190602001808311610d3957829003601f168201915b505050505081526020016005820154815260200160068201548152602001600782015f9054906101000a900460ff16151515158152602001600882015481525050828281518110610daa57610da9612a8f565b5b60200260200101819052508080600101915050610b0b565b508091505090565b815f81118015610ddc57506001548111155b610e1b576040517f08c379a0000000000000000000000000000000000000000000000000000000008152600401610e1290612a71565b60405180910390fd5b5f60035f8581526020019081526020015f209050806007015f9054906101000a900460ff16610e7f576040517f08c379a0000000000000000000000000000000000000000000000000000000008152600401610e7690612b06565b60405180910390fd5b3373ffffffffffffffffffffffffffffffffffffffff16816001015f9054906101000a900473ffffffffffffffffffffffffffffffffffffffff1673ffffffffffffffffffffffffffffffffffffffff1603610f10576040517f08c379a0000000000000000000000000000000000000000000000000000000008152600401610f0790612b94565b60405180910390fd5b5f83118015610f23575080600601548311155b610f62576040517f08c379a0000000000000000000000000000000000000000000000000000000008152600401610f5990612bfc565b60405180910390fd5b5f838260050154610f739190612c1a565b90505f61271060c883610f869190612c1a565b610f909190612c88565b90505f8183610f9f9190612cb8565b905082341015610fe4576040517f08c379a0000000000000000000000000000000000000000000000000000000008152600401610fdb90612d35565b60405180910390fd5b60025f815480929190610ff6906126e6565b91905055506040518060c001604052808881526020013373ffffffffffffffffffffffffffffffffffffffff1681526020014281526020018781526020018481526020016001151581525060055f60025481526020019081526020015f205f820151815f01556020820151816001015f6101000a81548173ffffffffffffffffffffffffffffffffffffffff021916908373ffffffffffffffffffffffffffffffffffffffff16021790555060408201518160020155606082015181600301556080820151816004015560a0820151816005015f6101000a81548160ff0219169083151502179055509050505f846007015f6101000a81548160ff0219169083151502179055508160065f5f5f9054906101000a900473ffffffffffffffffffffffffffffffffffffffff1673ffffffffffffffffffffffffffffffffffffffff1673ffffffffffffffffffffffffffffffffffffffff1681526020019081526020015f205f8282546111699190612d53565b92505081905550836001015f9054906101000a900473ffffffffffffffffffffffffffffffffffffffff1673ffffffffffffffffffffffffffffffffffffffff166108fc8290811502906040515f60405180830381858888f193505050501580156111d6573d5f5f3e3d5ffd5b508234111561122f573373ffffffffffffffffffffffffffffffffffffffff166108fc84346112059190612cb8565b90811502906040515f60405180830381858888f1935050505015801561122d573d5f5f3e3d5ffd5b505b3373ffffffffffffffffffffffffffffffffffffffff16600254887f6e366bea6b13efef9dc0a872079f266ee07d3b0b5b1fa38690f0967a59601bdf898760405161127b929190612d86565b60405180910390a450505050505050565b5f5f9054906101000a900473ffffffffffffffffffffffffffffffffffffffff1673ffffffffffffffffffffffffffffffffffffffff163373ffffffffffffffffffffffffffffffffffffffff161461131a576040517f08c379a000000000000000000000000000000000000000000000000000000000815260040161131190612e1d565b60405180910390fd5b5f60065f5f5f9054906101000a900473ffffffffffffffffffffffffffffffffffffffff1673ffffffffffffffffffffffffffffffffffffffff1673ffffffffffffffffffffffffffffffffffffffff1681526020019081526020015f205490505f81116113bd576040517f08c379a00000000000000000000000000000000000000000000000000000000081526004016113b490612eab565b60405180910390fd5b5f60065f5f5f9054906101000a900473ffffffffffffffffffffffffffffffffffffffff1673ffffffffffffffffffffffffffffffffffffffff1673ffffffffffffffffffffffffffffffffffffffff1681526020019081526020015f20819055505f5f9054906101000a900473ffffffffffffffffffffffffffffffffffffffff1673ffffffffffffffffffffffffffffffffffffffff166108fc8290811502906040515f60405180830381858888f19350505050158015611482573d5f5f3e3d5ffd5b507fcf1bd34e586f4e12ef1c4c84c337b05dd3f7fc5409e16c5fea9063524eb77022815f5f9054906101000a900473ffffffffffffffffffffffffffffffffffffffff166040516114d4929190612ec9565b60405180910390a150565b600781815481106114ee575f80fd5b905f5260205f20015f915090505481565b5f5f9054906101000a900473ffffffffffffffffffffffffffffffffffffffff1681565b6004602052815f5260405f20818154811061153c575f80fd5b905f5260205f20015f91509150505481565b60605f60045f8473ffffffffffffffffffffffffffffffffffffffff1673ffffffffffffffffffffffffffffffffffffffff1681526020019081526020015f208054806020026020016040519081016040528092919081815260200182805480156115d657602002820191905f5260205f20905b8154815260200190600101908083116115c2575b505050505090505f815167ffffffffffffffff8111156115f9576115f8611c98565b5b60405190808252806020026020018201604052801561163257816020015b61161f611bc4565b8152602001906001900390816116175790505b5090505f5f90505b82518110156118eb5760035f84838151811061165957611658612a8f565b5b602002602001015181526020019081526020015f20604051806101200160405290815f8201548152602001600182015f9054906101000a900473ffffffffffffffffffffffffffffffffffffffff1673ffffffffffffffffffffffffffffffffffffffff1673ffffffffffffffffffffffffffffffffffffffff1681526020016002820180546116e89061275a565b80601f01602080910402602001604051908101604052809291908181526020018280546117149061275a565b801561175f5780601f106117365761010080835404028352916020019161175f565b820191905f5260205f20905b81548152906001019060200180831161174257829003601f168201915b505050505081526020016003820180546117789061275a565b80601f01602080910402602001604051908101604052809291908181526020018280546117a49061275a565b80156117ef5780601f106117c6576101008083540402835291602001916117ef565b820191905f5260205f20905b8154815290600101906020018083116117d257829003601f168201915b505050505081526020016004820180546118089061275a565b80601f01602080910402602001604051908101604052809291908181526020018280546118349061275a565b801561187f5780601f106118565761010080835404028352916020019161187f565b820191905f5260205f20905b81548152906001019060200180831161186257829003601f168201915b505050505081526020016005820154815260200160068201548152602001600782015f9054906101000a900460ff161515151581526020016008820154815250508282815181106118d3576118d2612a8f565b5b6020026020010181905250808060010191505061163a565b508092505050919050565b6005602052805f5260405f205f91509050805f015490806001015f9054906101000a900473ffffffffffffffffffffffffffffffffffffffff1690806002015490806003015490806004015490806005015f9054906101000a900460ff16905086565b6006602052805f5260405f205f915090505481565b5f60045f8373ffffffffffffffffffffffffffffffffffffffff1673ffffffffffffffffffffffffffffffffffffffff1681526020019081526020015f20805490509050919050565b61271081565b6003602052805f5260405f205f91509050805f015490806001015f9054906101000a900473ffffffffffffffffffffffffffffffffffffffff1690806002018054611a079061275a565b80601f0160208091040260200160405190810160405280929190818152602001828054611a339061275a565b8015611a7e5780601f10611a5557610100808354040283529160200191611a7e565b820191905f5260205f20905b815481529060010190602001808311611a6157829003601f168201915b505050505090806003018054611a939061275a565b80601f0160208091040260200160405190810160405280929190818152602001828054611abf9061275a565b8015611b0a5780601f10611ae157610100808354040283529160200191611b0a565b820191905f5260205f20905b815481529060010190602001808311611aed57829003601f168201915b505050505090806004018054611b1f9061275a565b80601f0160208091040260200160405190810160405280929190818152602001828054611b4b9061275a565b8015611b965780601f10611b6d57610100808354040283529160200191611b96565b820191905f5260205f20905b815481529060010190602001808311611b7957829003601f168201915b505050505090806005015490806006015490806007015f9054906101000a900460ff16908060080154905089565b6040518061012001604052805f81526020015f73ffffffffffffffffffffffffffffffffffffffff1681526020016060815260200160608152602001606081526020015f81526020015f81526020015f151581526020015f81525090565b5f819050919050565b611c3481611c22565b82525050565b5f606082019050611c4d5f830186611c2b565b611c5a6020830185611c2b565b611c676040830184611c2b565b949350505050565b5f604051905090565b5f5ffd5b5f5ffd5b5f5ffd5b5f5ffd5b5f601f19601f8301169050919050565b7f4e487b71000000000000000000000000000000000000000000000000000000005f52604160045260245ffd5b611cce82611c88565b810181811067ffffffffffffffff82111715611ced57611cec611c98565b5b80604052505050565b5f611cff611c6f565b9050611d0b8282611cc5565b919050565b5f67ffffffffffffffff821115611d2a57611d29611c98565b5b611d3382611c88565b9050602081019050919050565b828183375f83830152505050565b5f611d60611d5b84611d10565b611cf6565b905082815260208101848484011115611d7c57611d7b611c84565b5b611d87848285611d40565b509392505050565b5f82601f830112611da357611da2611c80565b5b8135611db3848260208601611d4e565b91505092915050565b611dc581611c22565b8114611dcf575f5ffd5b50565b5f81359050611de081611dbc565b92915050565b5f5f5f5f5f60a08688031215611dff57611dfe611c78565b5b5f86013567ffffffffffffffff811115611e1c57611e1b611c7c565b5b611e2888828901611d8f565b955050602086013567ffffffffffffffff811115611e4957611e48611c7c565b5b611e5588828901611d8f565b945050604086013567ffffffffffffffff811115611e7657611e75611c7c565b5b611e8288828901611d8f565b9350506060611e9388828901611dd2565b9250506080611ea488828901611dd2565b9150509295509295909350565b5f602082019050611ec45f830184611c2b565b92915050565b5f60208284031215611edf57611ede611c78565b5b5f611eec84828501611dd2565b91505092915050565b611efe81611c22565b82525050565b5f73ffffffffffffffffffffffffffffffffffffffff82169050919050565b5f611f2d82611f04565b9050919050565b611f3d81611f23565b82525050565b5f81519050919050565b5f82825260208201905092915050565b8281835e5f83830152505050565b5f611f7582611f43565b611f7f8185611f4d565b9350611f8f818560208601611f5d565b611f9881611c88565b840191505092915050565b5f8115159050919050565b611fb781611fa3565b82525050565b5f61012083015f830151611fd35f860182611ef5565b506020830151611fe66020860182611f34565b5060408301518482036040860152611ffe8282611f6b565b915050606083015184820360608601526120188282611f6b565b915050608083015184820360808601526120328282611f6b565b91505060a083015161204760a0860182611ef5565b5060c083015161205a60c0860182611ef5565b5060e083015161206d60e0860182611fae565b50610100830151612082610100860182611ef5565b508091505092915050565b5f6020820190508181035f8301526120a58184611fbd565b905092915050565b5f81519050919050565b5f82825260208201905092915050565b5f819050602082019050919050565b5f61012083015f8301516120ec5f860182611ef5565b5060208301516120ff6020860182611f34565b50604083015184820360408601526121178282611f6b565b915050606083015184820360608601526121318282611f6b565b9150506080830151848203608086015261214b8282611f6b565b91505060a083015161216060a0860182611ef5565b5060c083015161217360c0860182611ef5565b5060e083015161218660e0860182611fae565b5061010083015161219b610100860182611ef5565b508091505092915050565b5f6121b183836120d6565b905092915050565b5f602082019050919050565b5f6121cf826120ad565b6121d981856120b7565b9350836020820285016121eb856120c7565b805f5b85811015612226578484038952815161220785826121a6565b9450612212836121b9565b925060208a019950506001810190506121ee565b50829750879550505050505092915050565b5f6020820190508181035f83015261225081846121c5565b905092915050565b5f5f6040838503121561226e5761226d611c78565b5b5f61227b85828601611dd2565b925050602061228c85828601611dd2565b9150509250929050565b61229f81611f23565b82525050565b5f6020820190506122b85f830184612296565b92915050565b6122c781611f23565b81146122d1575f5ffd5b50565b5f813590506122e2816122be565b92915050565b5f5f604083850312156122fe576122fd611c78565b5b5f61230b858286016122d4565b925050602061231c85828601611dd2565b9150509250929050565b5f6020828403121561233b5761233a611c78565b5b5f612348848285016122d4565b91505092915050565b61235a81611fa3565b82525050565b5f60c0820190506123735f830189611c2b565b6123806020830188612296565b61238d6040830187611c2b565b61239a6060830186611c2b565b6123a76080830185611c2b565b6123b460a0830184612351565b979650505050505050565b5f82825260208201905092915050565b5f6123d982611f43565b6123e381856123bf565b93506123f3818560208601611f5d565b6123fc81611c88565b840191505092915050565b5f6101208201905061241b5f83018c611c2b565b612428602083018b612296565b818103604083015261243a818a6123cf565b9050818103606083015261244e81896123cf565b9050818103608083015261246281886123cf565b905061247160a0830187611c2b565b61247e60c0830186611c2b565b61248b60e0830185612351565b612499610100830184611c2b565b9a9950505050505050505050565b7f44657363726963616f206e616f20706f64652065737461722076617a696100005f82015250565b5f6124db601e836123bf565b91506124e6826124a7565b602082019050919050565b5f6020820190508181035f830152612508816124cf565b9050919050565b7f5469706f20646f20696d6f76656c206e616f20706f64652065737461722076615f8201527f7a696f0000000000000000000000000000000000000000000000000000000000602082015250565b5f6125696023836123bf565b91506125748261250f565b604082019050919050565b5f6020820190508181035f8301526125968161255d565b9050919050565b7f56616c6f7220646120646961726961206465766520736572206d61696f7220715f8201527f7565207a65726f00000000000000000000000000000000000000000000000000602082015250565b5f6125f76027836123bf565b91506126028261259d565b604082019050919050565b5f6020820190508181035f830152612624816125eb565b9050919050565b7f4469617320646973706f6e6976656973206465766520736572206d61696f72205f8201527f717565207a65726f000000000000000000000000000000000000000000000000602082015250565b5f6126856028836123bf565b91506126908261262b565b604082019050919050565b5f6020820190508181035f8301526126b281612679565b9050919050565b7f4e487b71000000000000000000000000000000000000000000000000000000005f52601160045260245ffd5b5f6126f082611c22565b91507fffffffffffffffffffffffffffffffffffffffffffffffffffffffffffffffff8203612722576127216126b9565b5b600182019050919050565b7f4e487b71000000000000000000000000000000000000000000000000000000005f52602260045260245ffd5b5f600282049050600182168061277157607f821691505b6020821081036127845761278361272d565b5b50919050565b5f819050815f5260205f209050919050565b5f6020601f8301049050919050565b5f82821b905092915050565b5f600883026127e67fffffffffffffffffffffffffffffffffffffffffffffffffffffffffffffffff826127ab565b6127f086836127ab565b95508019841693508086168417925050509392505050565b5f819050919050565b5f61282b61282661282184611c22565b612808565b611c22565b9050919050565b5f819050919050565b61284483612811565b61285861285082612832565b8484546127b7565b825550505050565b5f5f905090565b61286f612860565b61287a81848461283b565b505050565b5b8181101561289d576128925f82612867565b600181019050612880565b5050565b601f8211156128e2576128b38161278a565b6128bc8461279c565b810160208510156128cb578190505b6128df6128d78561279c565b83018261287f565b50505b505050565b5f82821c905092915050565b5f6129025f19846008026128e7565b1980831691505092915050565b5f61291a83836128f3565b9150826002028217905092915050565b61293382611f43565b67ffffffffffffffff81111561294c5761294b611c98565b5b612956825461275a565b6129618282856128a1565b5f60209050601f831160018114612992575f8415612980578287015190505b61298a858261290f565b8655506129f1565b601f1984166129a08661278a565b5f5b828110156129c7578489015182556001820191506020850194506020810190506129a2565b868310156129e457848901516129e0601f8916826128f3565b8355505b6001600288020188555050505b505050505050565b5f6040820190508181035f830152612a1181856123cf565b9050612a206020830184611c2b565b9392505050565b7f496d6f76656c206e616f206578697374650000000000000000000000000000005f82015250565b5f612a5b6011836123bf565b9150612a6682612a27565b602082019050919050565b5f6020820190508181035f830152612a8881612a4f565b9050919050565b7f4e487b71000000000000000000000000000000000000000000000000000000005f52603260045260245ffd5b7f496d6f76656c206e616f206573746120646973706f6e6976656c0000000000005f82015250565b5f612af0601a836123bf565b9150612afb82612abc565b602082019050919050565b5f6020820190508181035f830152612b1d81612ae4565b9050919050565b7f50726f70726965746172696f206e616f20706f646520616c75676172207365755f8201527f2070726f7072696f20696d6f76656c0000000000000000000000000000000000602082015250565b5f612b7e602f836123bf565b9150612b8982612b24565b604082019050919050565b5f6020820190508181035f830152612bab81612b72565b9050919050565b7f5175616e746964616465206465206469617320696e76616c69646100000000005f82015250565b5f612be6601b836123bf565b9150612bf182612bb2565b602082019050919050565b5f6020820190508181035f830152612c1381612bda565b9050919050565b5f612c2482611c22565b9150612c2f83611c22565b9250828202612c3d81611c22565b91508282048414831517612c5457612c536126b9565b5b5092915050565b7f4e487b71000000000000000000000000000000000000000000000000000000005f52601260045260245ffd5b5f612c9282611c22565b9150612c9d83611c22565b925082612cad57612cac612c5b565b5b828204905092915050565b5f612cc282611c22565b9150612ccd83611c22565b9250828203905081811115612ce557612ce46126b9565b5b92915050565b7f56616c6f7220656e766961646f20696e737566696369656e74650000000000005f82015250565b5f612d1f601a836123bf565b9150612d2a82612ceb565b602082019050919050565b5f6020820190508181035f830152612d4c81612d13565b9050919050565b5f612d5d82611c22565b9150612d6883611c22565b9250828201905080821115612d8057612d7f6126b9565b5b92915050565b5f604082019050612d995f830185611c2b565b612da66020830184611c2b565b9392505050565b7f4170656e6173206f20646f6e6f20646120706c617461666f726d6120706f64655f8201527f20657865637574617220657374612066756e63616f0000000000000000000000602082015250565b5f612e076035836123bf565b9150612e1282612dad565b604082019050919050565b5f6020820190508181035f830152612e3481612dfb565b9050919050565b7f4e656e68756d61207461786120646973706f6e6976656c207061726120636f6c5f8201527f6574610000000000000000000000000000000000000000000000000000000000602082015250565b5f612e956023836123bf565b9150612ea082612e3b565b604082019050919050565b5f6020820190508181035f830152612ec281612e89565b9050919050565b5f604082019050612edc5f830185611c2b565b612ee96020830184612296565b939250505056fea26469706673582212201ba0084be976e8731834e876b3fc38ea968bab9b0f68a8813816fe99e5f42ca664736f6c634300081e0033",
        "linkReferences": {}
    },
    "methodIdentifiers": {
        "BASIS_POINTS()": "e1f1c4a7",
        "PLATFORM_FEE()": "34fbc9a1",
        "allPropertyIds(uint256)": "4efcaca5",
        "collectPlatformFees()": "4287f245",
        "getAllProperties()": "3d51402c",
        "getOwnerPropertyCount(address)": "d79fb4ff",
        "getPlatformStats()": "136d8883",
        "getPropertiesByOwner(address)": "9fcb2748",
        "getProperty(uint256)": "32665ffb",
        "owner()": "8da5cb5b",
        "ownerProperties(address,uint256)": "8f48bd5b",
        "platformEarnings(address)": "c33a57d1",
        "properties(uint256)": "f7b10808",
        "registerProperty(string,string,string,uint256,uint256)": "2a67b974",
        "rentProperty(uint256,uint256)": "3ec4ebb7",
        "rentals(uint256)": "af94a1d1"
    },
    "id": 21
}